:100000000C9463000C948B000C948B000C948B006C
:100010000C948B000C948B000C948B000C948B0034
:100020000C948B000C948B000C948B000C948B0024
:100030000C948B000C948B000C948B000C948B0014
:100040000C9418030C948B000C94E6020C94C002E0
:100050000C948B000C948B000C948B000C948B00F4
:100060000C948B000C948B000000000023002600F1
:10007000290000000008000201000003040700003E
:1000800000000000000000000000250028002B00F8
:1000900000000000240027002A00040404040404D3
:1000A0000404020202020202030303030303010227
:1000B00004081020408001020408102001020408F6
:1000C00010206203870411241FBECFEFD8E0DEBFEB
:1000D000CDBF22E0ACE5B1E001C01D92A631B20770
:1000E000E1F711E0A0E0B1E0E8EAFDE002C0059030
:1000F0000D92AC35B107D9F710E0C2E6D0E004C0EC
:100100002197FE010E94CF04C136D107C9F70E9492
:1001100096030C94C7060C940000CF93DF9390E0F5
:10012000FC01E255FF4F249186569F4FFC018491BC
:100130008823C1F090E0880F991FFC01E057FF4F22
:10014000C591D491FC01EA57FF4FA591B4919FB797
:10015000F8948881E22FE0958E2388838C91E823A0
:10016000EC939FBFDF91CF910895AF92BF92CF9252
:10017000DF92EF92FF920F931F93CF93DF936C0167
:100180007B018B01040F151FEB015E01AE18BF0848
:10019000C017D10759F06991D601ED91FC910190FA
:1001A000F081E02DC6010995892B79F7C501DF9112
:1001B000CF911F910F91FF90EF90DF90CF90BF9064
:1001C000AF90089542E050E068E171E089E691E087
:1001D0000C94B500FC01538D448D252F30E0842F05
:1001E00090E0821B930B541710F0CF96089501975F
:1001F0000895FC01918D828D981761F0A28DAE0F4C
:10020000BF2FB11D5D968C91928D9F5F9F73928FD2
:1002100090E008958FEF9FEF0895FC01918D828DFE
:10022000981731F0828DE80FF11D858D90E00895CB
:100230008FEF9FEF0895FC01918D228D892F90E023
:10024000805C9F4F821B91098F739927089589E6DF
:1002500091E00E941B0121E0892B09F420E0822F0C
:10026000089580E090E0892B29F00E9427018111F8
:100270000C9400000895FC01A48DA80FB92FB11DA6
:10028000A35ABF4F2C91848D90E001968F739927CC
:10029000848FA689B7892C93A089B1898C918370AA
:1002A00080648C93938D848D981306C00288F389A3
:1002B000E02D80818F7D80830895EF92FF920F93D0
:1002C0001F93CF93DF93EC0181E0888F9B8D8C8D02
:1002D00098131AC0E889F989808185FF15C09FB7F6
:1002E000F894EE89FF896083E889F98980818370B9
:1002F000806480839FBF81E090E0DF91CF911F9168
:100300000F91FF90EF900895F62E0B8D10E00F5F88
:100310001F4F0F731127E02E8C8D8E110CC00FB65E
:1003200007FCFACFE889F989808185FFF5CFCE01F6
:100330000E943B01F1CFEB8DEC0FFD2FF11DE35A35
:10034000FF4FF0829FB7F8940B8FEA89FB89808179
:100350008062CFCFCF93DF93EC01888D8823B9F0F3
:10036000AA89BB89E889F9898C9185FD03C08081C0
:1003700086FD0DC00FB607FCF7CF8C9185FFF2CF3D
:10038000808185FFEDCFCE010E943B01E9CFDF9157
:10039000CF91089590E0FC01EE58FF4F2491FC01AD
:1003A000E255FF4F3491FC01E656FF4FE491EE23F6
:1003B000C1F1222339F02330E9F090F4213001F12A
:1003C000223011F1F0E0EE0FFF1FE859FF4FA59129
:1003D000B491EC91E32381E090E029F580E0089569
:1003E0002730A9F02830C9F0243061F780918000CF
:1003F0008F7D03C0809180008F7780938000E2CF53
:1004000084B58F7784BDDECF84B58F7DFBCF80919F
:10041000B0008F778093B000D5CF8091B0008F7DF2
:10042000F9CF80E090E008953FB7F89480916101A2
:1004300090916201A0916301B091640126B5A89BDF
:1004400005C02F3F19F00196A11DB11D3FBFBA2F66
:10045000A92F982F8827BC01CD01620F711D811D26
:10046000911D42E0660F771F881F991F4A95D1F7AB
:1004700008950F931F93CF93DF93EC0188819981A7
:10048000009759F02A813B812617370730F081E029
:10049000DF91CF911F910F9108958B016F5F7F4F77
:1004A0000E94FA05009759F0998388831B830A8379
:1004B0002C813D81232B59F7FC011082E8CF80E08D
:1004C000E7CFCF93DF93EC01198218821B821A8247
:1004D0001D821C8270E060E00E943902288139810F
:1004E00081110FC02115310519F0C9010E94710554
:1004F000198218821D821C821B821A82DF91CF9181
:1005000008951D821C826AE171E0C901DF91CF91DB
:100510000C94C006EF92FF920F931F93CF93DF933B
:10052000EC017B01FB0101900020E9F731978F017D
:10053000061B170BB8010E943902288139818111ED
:1005400013C02115310519F0C9010E9471051982E6
:1005500018821D821C821B821A82DF91CF911F910B
:100560000F91FF90EF9008951D830C83B701C9018F
:10057000DF91CF911F910F91FF90EF900C94C006E7
:100580001F920F920FB60F9211242F933F934F9308
:100590005F936F937F938F939F93AF93BF93EF93EB
:1005A000FF9389E691E00E943B01FF91EF91BF919B
:1005B000AF919F918F917F916F915F914F913F91FB
:1005C0002F910F900FBE0F901F9018951F920F92B2
:1005D0000FB60F9211242F938F939F93EF93FF9356
:1005E000E0917901F0917A018081E0917F01F091B1
:1005F000800182FD1BC09081809182018F5F8F738B
:1006000020918301821741F0E0918201F0E0E759E7
:10061000FE4F958F80938201FF91EF919F918F9173
:100620002F910F900FBE0F901F9018958081F4CFDF
:100630001F920F920FB60F9211242F933F938F9317
:100640009F93AF93BF9380915D0190915E01A091C4
:100650005F01B091600130915C0123E0230F2D37E1
:1006600058F50196A11DB11D20935C0180935D0199
:1006700090935E01A0935F01B0936001809161014E
:1006800090916201A0916301B09164010196A11D56
:10069000B11D8093610190936201A0936301B093B7
:1006A0006401BF91AF919F918F913F912F910F90D6
:1006B0000FBE0F901F90189526E8230F0296A11DDC
:1006C000B11DD2CFE9E6F1E01382128288EE93E009
:1006D000A0E0B0E084839583A683B7838AE091E0AD
:1006E0009183808385EC90E09587848784EC90E00B
:1006F0009787868780EC90E0918B808B81EC90E0EF
:10070000938B828B82EC90E0958B848B86EC90E0CF
:10071000978B868B118E128E138E148E8CE092E046
:100720000E94610286E092E00C946102789484B5A4
:10073000826084BD84B5816084BD85B5826085BDDD
:1007400085B5816085BD80916E00816080936E006B
:10075000109281008091810082608093810080915D
:10076000810081608093810080918000816080930E
:1007700080008091B10084608093B1008091B000CE
:1007800081608093B00080917A00846080937A00C9
:1007900080917A00826080937A0080917A008160F3
:1007A00080937A0080917A00806880937A0010921A
:1007B000C100E0917901F0917A0182E08083E091BB
:1007C0007501F09176011082E0917701F091780146
:1007D0008FEC808310928101E0917D01F0917E0188
:1007E00086E08083E0917B01F0917C0180818061D3
:1007F0008083E0917B01F0917C018081886080831F
:10080000E0917B01F0917C01808180688083E091A0
:100810007B01F0917C0180818F7D808382E00E944A
:100820008D0083E00E948D00C0E0D0E00E941402A1
:100830004B015C0188ECC82ED12CE12CF12C0E94DC
:100840001402681979098A099B09683E7340810579
:100850009105A8F321E0C21AD108E108F10888EE59
:10086000880E83E0981EA11CB11CC114D104E104C0
:10087000F10429F782E00E94CA016C01909368019B
:100880008093670183E00E94CA017C019093660116
:10089000809365016BE171E0CA94CD2811F067E2A5
:1008A00071E08CE092E00E948A0266E371E0EA94D3
:1008B000EF2811F065E471E086E092E00E948A0280
:1008C000409110025091110260910C0270910D0242
:1008D00089E691E00E94B5000E94E20040910A0280
:1008E00050910B02609106027091070289E691E037
:1008F0000E94B5000E94E200209709F497CF0E9461
:100900002701882309F492CF0E9400008FCF8091A5
:10091000060290910702009711F00E9471058091E4
:100920000C0290910D02009711F00C94710508953E
:100930002F923F924F925F926F927F928F929F92EF
:10094000AF92BF92CF92DF92EF92FF920F931F93DD
:10095000CF93DF93CDB7DEB7CA1BDB0B0FB6F8948E
:10096000DEBF0FBECDBF09942A88398848885F84CE
:100970006E847D848C849B84AA84B984C884DF803F
:10098000EE80FD800C811B81AA81B981CE0FD11D23
:100990000FB6F894DEBF0FBECDBFED010895EE0F88
:1009A000FF1F0590F491E02D09940F931F93CF93AF
:1009B000DF938230910510F482E090E0E091140220
:1009C000F091150230E020E0B0E0A0E0309799F41B
:1009D0002115310509F44AC0281B390B2430310593
:1009E000D8F58A819B816115710589F1FB0193839B
:1009F0008283FE0111C04081518102811381481719
:100A00005907E0F04817590799F4109761F01296CA
:100A10000C93129713961C933296CF01DF91CF91CE
:100A20001F910F9108950093140210931502F4CFB3
:100A30002115310551F04217530738F0A901DB01A8
:100A40009A01BD01DF01F801C1CFEF01F9CF909309
:100A5000150280931402CDCFFE01E20FF31F8193A4
:100A600091932250310939832883D7CF20911202E4
:100A700030911302232B41F42091020130910301A4
:100A80003093130220931202209100013091010152
:100A90002115310541F42DB73EB740910401509125
:100AA0000501241B350BE0911202F0911302E217AD
:100AB000F307A0F42E1B3F0B2817390778F0AC0181
:100AC0004E5F5F4F2417350748F04E0F5F1F50935E
:100AD000130240931202819391939FCFF0E0E0E0E4
:100AE0009CCFCF93DF930097E9F0FC0132971382FC
:100AF0001282A0911402B0911502ED0130E020E0C5
:100B00001097A1F420813181820F931F209112024E
:100B1000309113022817390709F061C0F0931302CE
:100B2000E0931202DF91CF910895EA01CE17DF071B
:100B3000E8F54A815B819E0141155105B1F7E90154
:100B4000FB83EA8349915991C40FD51FEC17FD0728
:100B500061F4808191810296840F951FE901998348
:100B60008883828193819B838A83F0E0E0E0129600
:100B70008D919C9113970097B9F52D913C91119708
:100B8000CD010296820F931F209112023091130221
:100B90002817390739F6309751F51092150210923F
:100BA0001402B0931302A0931202BCCFD383C2836A
:100BB00040815181840F951FC817D90761F44E5F9A
:100BC0005F4F88819981480F591F518340838A81E3
:100BD0009B81938382832115310509F0B0CFF09377
:100BE0001502E09314029ECFFD01DC01C0CF1382F9
:100BF0001282D7CFB0E0A0E0E0E0F6E00C949A04D7
:100C00008C01009751F4CB010E94D5048C01C801DE
:100C1000CDB7DEB7E0E10C94B604FC01E60FF71F98
:100C20009C0122503109E217F30708F49DC0D90155
:100C3000CD91DC911197C617D70798F0C530D10533
:100C400030F3CE0104978617970708F3C61BD70B1E
:100C50002297C193D1936D937C93CF010E9471052C
:100C6000D6CF5B01AC1ABD0A4C018C0E9D1EA09123
:100C70001402B0911502512C412CF12CE12C10974B
:100C800031F580911202909113028815990509F0AF
:100C90005CC04616570608F058C08091000190913C
:100CA0000101009741F48DB79EB740910401509126
:100CB0000501841B950BE817F90708F055C0F09360
:100CC0001302E0931202F90171836083A0CF8D912A
:100CD0009C91119712966C90129713967C90139793
:100CE000A815B90559F56C0142E0C40ED11CCA140F
:100CF000DB0420F1AC014A195B09DA011296159761
:100D000080F06282738251834083D9016D937C931A
:100D1000E114F10471F0D7011396FC93EE9312974E
:100D200076CF22968C0F9D1FF90191838083F3016A
:100D3000EFCFF0931502E093140269CF48165906DD
:100D400008F42C017D01D3019ACFCB010E94D50478
:100D50007C01009749F0AE01B8010E94B706C801B6
:100D60000E947105870153CF10E000E050CFFB01D6
:100D7000DC0102C001900D9241505040D8F7089517
:100D8000FB01DC0101900D920020E1F7089510E0D5
:100D9000C2E6D0E004C0FE010E94CF042196C33613
:080DA000D107C9F7F894FFCF59
:100DA800000016028000000000005D01B500EA00A6
:100DB800AA011B01F9000D010D0A006167756E207B
:100DC80064686F727365006167756E2064686F721E
:100DD80065206E616900676173206C65616B206BCB
:100DE8006F72736500676173206C65616B206B6F50
:0C0DF80072656E6169206368696C6C00B4
:00000001FF
