:100000000C9464000C948C000C948C000C948C0068
:100010000C948C000C948C000C948C000C94740543
:100020000C948C000C948C000C948C000C948C0020
:100030000C948C000C948C000C948C000C948C0010
:100040000C9428060C948C000C94F6050C94D005A6
:100050000C948C000C948C000C948C000C948C00F0
:100060000C948C000C948C000000000024002700ED
:100070002A000000000023002600290000000008DC
:10008000000201000003040700000000000000005F
:10009000010204081020408001020408102001021F
:1000A0000408102000000000250028002B00040494
:1000B0000404040404040202020202020303030310
:1000C0000303020072065B0811241FBECFEFD8E0C5
:1000D000DEBFCDBF22E0A0ECB1E001C01D92A5398A
:1000E000B207E1F711E0A0E0B1E0E2E0FAE102C01E
:1000F00005900D92A03CB107D9F710E0C3E6D0E01F
:1001000004C02197FE010E94FC0AC236D107C9F73C
:100110000E94AA060C94F40C0C940000AF92BF92BB
:10012000CF92DF92EF92FF920F931F93CF93DF93C3
:100130006C017B018B01040F151FEB015E01AE18F2
:10014000BF08C017D10759F06991D601ED91FC9114
:100150000190F081E02DC6010995892B79F7C50141
:10016000DF91CF911F910F91FF90EF90DF90CF9093
:10017000BF90AF900895FC01538D448D252F30E042
:10018000842F90E0821B930B541710F0CF960895A4
:1001900001970895FC01918D828D981761F0A28DD1
:1001A000AE0FBF2FB11D5D968C91928D9F5F9F7397
:1001B000928F90E008958FEF9FEF0895FC01918D4D
:1001C000828D981731F0828DE80FF11D858D90E0BA
:1001D00008958FEF9FEF0895FC01918D228D892F57
:1001E00090E0805C9F4F821B91098F73992708953F
:1001F00082EE91E00E94EC0021E0892B09F420E0DE
:10020000822F089580E090E0892B29F00E94F80069
:1002100081110C9400000895FC01A48DA80FB92F42
:10022000B11DA35ABF4F2C91848D90E001968F731E
:100230009927848FA689B7892C93A089B1898C913D
:10024000837080648C93938D848D981306C002888C
:10025000F389E02D80818F7D80830895EF92FF9256
:100260000F931F93CF93DF93EC0181E0888F9B8DD9
:100270008C8D98131AC0E889F989808185FF15C093
:100280009FB7F894EE89FF896083E889F9898081B6
:100290008370806480839FBF81E090E0DF91CF9185
:1002A0001F910F91FF90EF900895F62E0B8D10E0A7
:1002B0000F5F1F4F0F731127E02E8C8D8E110CC016
:1002C0000FB607FCFACFE889F989808185FFF5CF61
:1002D000CE010E940C01F1CFEB8DEC0FFD2FF11D33
:1002E000E35AFF4FF0829FB7F8940B8FEA89FB899E
:1002F00080818062CFCFCF93DF93EC01888D8823FC
:10030000B9F0AA89BB89E889F9898C9185FD03C078
:10031000808186FD0DC00FB607FCF7CF8C9185FF5D
:10032000F2CF808185FFEDCFCE010E940C01E9CF95
:10033000DF91CF910895833081F028F4813099F0D6
:100340008230A9F008958730A9F08830C9F0843050
:10035000B1F4809180008F7D03C0809180008F7701
:1003600080938000089584B58F7784BD089584B507
:100370008F7DFBCF8091B0008F778093B000089580
:100380008091B0008F7DF9CFCF93DF9390910001E2
:1003900089130BC0E2ECF0E0E4919FEF9093000131
:1003A000E13059F138F1E23071F1282F30E0F901F4
:1003B000E458FF4F8491F901E057FF4FD491F901C0
:1003C000E255FF4FC491CC2391F081110E949B0113
:1003D000EC2FF0E0EE0FFF1FEC55FF4FA591B4910D
:1003E0008FB7F894EC91D095DE23DC938FBFDF912B
:1003F000CF91089510926E00D8CF90916F009D7F9D
:1004000090936F00D2CF909170009D7F9093700079
:1004100091E09093B0009091B100987F9460909398
:10042000B1001092B300C1CFCF93DF93282F30E0FB
:10043000F901E458FF4F8491F901E057FF4FD4913F
:10044000F901E255FF4FC491CC23A1F081110E9424
:100450009B01EC2FF0E0EE0FFF1FEE58FF4FA59130
:10046000B491EC91ED2381E090E009F480E0DF911C
:10047000CF91089580E090E0FACFCF93DF9390E0A2
:10048000FC01E057FF4F249182559F4FFC0184915E
:100490008823D1F090E0880F991FFC01E859FF4FA5
:1004A000A591B491FC01EC55FF4FC591D491611118
:1004B0000EC09FB7F8948C91E22FE0958E238C9319
:1004C0002881E223E8839FBFDF91CF9108958FB702
:1004D000F894EC91E22BEC938FBFF6CFCF93809101
:1004E0000001853021F08F3F59F1CF910895E2EC62
:1004F000F0E0C491C7FDF9CF61E085E00E943D02C4
:10050000CC2309F48BC0C23009F09FC08091B100A8
:10051000887F83608093B10089EF8093B3008FEF71
:100520009FEFDC018093D6019093D701A093D8016F
:10053000B093D90180917000826080937000D5CF14
:1005400085E080930001E2ECF0E0C491CF3F69F2D6
:10055000C13021F150F0C23009F43EC0C7FDC5CF13
:1005600061E085E00E943D02CECF14BC15BC84B58D
:10057000826084BD85B5816085BDE3EBF0E0E491E8
:10058000F0E0EE0FFF1FEC55FF4F85919491E5E9E8
:10059000F0E0E491E093D501C0E0AECF109280008E
:1005A0001092810080918100886080938100809109
:1005B0008100816080938100E3EBF0E0E491F0E062
:1005C000EE0FFF1FEC55FF4F85919491E5E9F0E0A8
:1005D000E491E093D40190CF1092B0001092B1005A
:1005E0008091B00082608093B0008091B100816002
:1005F0008093B100E3EBF0E0E491F0E0EE0FFF1F39
:10060000EC55FF4F859194919093D3018093D20143
:10061000E5E9F0E0E491E093D1016ECF85B5887F04
:10062000836085BD8CE787BD8FEF9FEFDC018093F2
:10063000DE019093DF01A093E001B093E10180918E
:100640006E00826080936E0050CFC130E9F48091DB
:100650008100887F8160809381008FE39FE1909388
:100660008900809388008FEF9FEFDC018093DA018F
:100670009093DB01A093DC01B093DD0180916F00CA
:10068000826080936F0031CFC23021F0C1112DCF35
:100690008FE3C9CF8FE341CF8E50806480937C007D
:1006A00080917A00806480937A0080917A0086FD40
:1006B000FCCF809178009091790008953FB7F8942D
:1006C0008091C5019091C601A091C701B091C80168
:1006D00026B5A89B05C02F3F19F00196A11DB11D9D
:1006E0003FBFBA2FA92F982F8827BC01CD01620FD9
:1006F000711D811D911D42E0660F771F881F991F94
:100700004A95D1F708958F929F92AF92BF92CF9260
:10071000DF92EF92FF924B015C010E945E036B013E
:100720007C010E945E036C197D098E099F09683E59
:10073000734081059105A8F321E0821A9108A10870
:10074000B10888EEC80E83E0D81EE11CF11C8114AC
:100750009104A104B10429F7FF90EF90DF90CF90AE
:10076000BF90AF909F908F900895FC010190002062
:10077000E9F73197AF01481B590BBC0182EE91E0BC
:100780000C948E00CF93DF93FC01448155816081EE
:10079000718182EE91E00E948E00EC0189E191E08E
:1007A0000E94B5038C0F9D1FDF91CF9108958F920A
:1007B0009F92AF92BF920F931F93CF93DF93CDB7CA
:1007C000DEB7A1970FB6F894DEBF0FBECDBF19A25A
:1007D000423008F44AE08E010F5D1F4F842E912CA9
:1007E000B12CA12CA50194010E94DA0AE62FB901CF
:1007F000CA01EA30F4F4E05DD801EE938D01232BB9
:10080000242B252B79F790E080E0109719F0CD018B
:100810000E94B503A1960FB6F894DEBF0FBECDBF00
:10082000DF91CF911F910F91BF90AF909F908F90CC
:100830000895E95CE1CF4F925F926F927F928F9221
:100840009F92AF92BF92CF92DF92EF92FF926B0195
:100850007C01AC019B010E94D50A8823C1F08CE188
:1008600091E00E94B5037C0189E191E00E94B5030B
:100870008E0D9F1DFF90EF90DF90CF90BF90AF90B7
:100880009F908F907F906F905F904F90089546015A
:100890005701E894B7F82FEF3FEF4FE75FE7C50147
:1008A000B4010E94D50A81110DC02FEF3FEF4FE731
:1008B0005FE7C501B4010E94670818161CF480E2C6
:1008C00091E0CFCF2FEF3FEF4FE75FE4C701B601D5
:1008D0000E94D00A18161CF484E291E0C2CF2FEFD8
:1008E0003FEF4FE75FECC701B6010E94670887FD45
:1008F000F3CF20E030E0A901C701B6010E946708EC
:10090000B12CA12C87FF0AC06DE282EE91E00E941B
:100910002E015C01F7FAF094F7F8F0942AE037ED35
:1009200043EA5BE3C701B6010E94C3092B013C0106
:100930000E94A10A6B017C010E946C089B01AC0122
:10094000C301B2010E94C2092B013C014AE0C70168
:10095000B6010E94D7037C01EA0CFB1C6EE282EE1A
:1009600091E00E942E01E80EF91E20E030E040E206
:1009700051E4C301B2010E94CD082B013C010E9449
:10098000A10A4B01B12CA12C4AE0C501B4010E947F
:10099000D703E80EF91EC501B4010E946C089B0143
:1009A000AC01C301B2010E94C20920E030E040E284
:1009B00051E40E94CD080E94A10A90E080E04AE044
:1009C0000E94D703E80EF91E4FCFFC018081918170
:1009D000009711F00C949E0B08950F931F93CF93E3
:1009E000DF93EC0188819981009759F02A813B813E
:1009F0002617370730F081E0DF91CF911F910F91DB
:100A000008958B016F5F7F4F0E94270C009759F06C
:100A1000998388831B830A832C813D81232B59F77B
:100A2000FC011082E8CF80E0E7CFCF93DF93EC01A9
:100A3000198218821B821A821D821C8270E060E07B
:100A40000E94ED042881398181110FC021153105E3
:100A500019F0C9010E949E0B198218821D821C8206
:100A60001B821A82DF91CF9108951D821C826BE157
:100A700071E0C901DF91CF910C94ED0CEF92FF92E0
:100A80000F931F93CF93DF93EC017B01FB01019048
:100A90000020E9F731978F01061B170BB8010E9460
:100AA000ED0428813981811113C02115310519F018
:100AB000C9010E949E0B198218821D821C821B8212
:100AC0001A82DF91CF911F910F91FF90EF900895BF
:100AD0001D830C83B701C901DF91CF911F910F9145
:100AE000FF90EF900C94ED0C1F920F920FB60F92A7
:100AF00011242F933F934F935F936F937F938F9323
:100B00009F93AF93BF93EF93FF938091D601909102
:100B1000D701A091D801B091D901892B8A2B8B2BB9
:100B2000D1F19091D101E091D201F091D301808176
:100B3000892780838091D6019091D701A091D80117
:100B4000B091D901181619061A061B069CF480915B
:100B5000D6019091D701A091D801B091D901019708
:100B6000A109B1098093D6019093D701A093D80130
:100B7000B093D901FF91EF91BF91AF919F918F9168
:100B80007F916F915F914F913F912F910F900FBE89
:100B90000F901F901895809100010E94C401EACF28
:100BA0001F920F920FB60F9211242F933F934F93E2
:100BB0005F936F937F938F939F93AF93BF93EF93C5
:100BC000FF9382EE91E00E940C01FF91EF91BF91A3
:100BD000AF919F918F917F916F915F914F913F91D5
:100BE0002F910F900FBE0F901F9018951F920F928C
:100BF0000FB60F9211242F938F939F93EF93FF9330
:100C0000E091F201F091F3018081E091F801F0911F
:100C1000F90182FD1BC090818091FB018F5F8F7372
:100C20002091FC01821741F0E091FB01F0E0EE51D0
:100C3000FE4F958F8093FB01FF91EF919F918F91D4
:100C40002F910F900FBE0F901F9018958081F4CFB9
:100C50001F920F920FB60F9211242F933F938F93F1
:100C60009F93AF93BF938091C1019091C201A091D6
:100C7000C301B091C4013091C00123E0230F2D378F
:100C800058F50196A11DB11D2093C0018093C101AB
:100C90009093C201A093C301B093C4018091C50198
:100CA0009091C601A091C701B091C8010196A11D04
:100CB000B11D8093C5019093C601A093C701B09365
:100CC000C801BF91AF919F918F913F912F910F904C
:100CD0000FBE0F901F90189526E8230F0296A11DB6
:100CE000B11DD2CFE2EEF1E01382128288EE93E0E2
:100CF000A0E0B0E084839583A683B7838BE091E086
:100D00009183808385EC90E09587848784EC90E0E4
:100D10009787868780EC90E0918B808B81EC90E0C8
:100D2000938B828B82EC90E0958B848B86EC90E0A9
:100D3000978B868B118E128E138E148E8BE892E019
:100D40000E94150585E892E00E9415058FE792E064
:100D50000C941505789484B5826084BD84B5816057
:100D600084BD85B5826085BD85B5816085BD809176
:100D70006E00816080936E001092810080918100EE
:100D800082608093810080918100816080938100E6
:100D9000809180008160809380008091B1008460A8
:100DA0008093B1008091B00081608093B000809109
:100DB0007A00846080937A0080917A0082608093C8
:100DC0007A0080917A00816080937A0080917A0025
:100DD000806880937A001092C100E091F201F09156
:100DE000F30182E08083E091EE01F091EF01108247
:100DF000E091F001F091F1018FEC80831092FA0103
:100E0000E091F601F091F70186E08083E091F40132
:100E1000F091F501808180618083E091F401F0918F
:100E2000F501808188608083E091F401F091F50103
:100E3000808180688083E091F401F091F5018081E8
:100E40008F7D808360E082E00E943D0260E083E06D
:100E50000E943D0260E083E10E943D0260E084E088
:100E60000E943D0260E08EE00E943D0260E08FE063
:100E70000E943D0261E085E00E943D02C0E0D0E0BA
:100E800068EC70E080E090E00E94830382E00E94C2
:100E900014027C019093D0018093CF0183E00E94E3
:100EA00014028C019093CE018093CD0183E10E94C6
:100EB0004C03BC01990F880B990B0E946E0860933C
:100EC000C9017093CA018093CB019093CC01EA943D
:100ED000EF2809F0E2C068E271E08BE892E00E943E
:100EE0003E050E946E0264E170E080E090E00E94A6
:100EF000830385E00E94C4010130110509F0D4C0CC
:100F000067E371E085E892E00E943E050E946E0270
:100F100064E170E080E090E00E94830385E00E943D
:100F2000C40184E00E9414020197B1F420E030E093
:100F300048E452E46091C9017091CA018091CB01EB
:100F40009091CC010E94670887FF06C06CE471E0B5
:100F50008FE792E00E943E0584E00E941402019710
:100F6000B1F420E030E048E452E46091C9017091AE
:100F7000CA018091CB019091CC010E94D00A181631
:100F800034F46DE771E08FE792E00E943E0584E063
:100F90000E941402892B31F465EB71E08FE792E037
:100FA0000E943E058EE00E944C03BC01990F880B05
:100FB000990B0E946E0820E030E040E85AE30E945E
:100FC000CD0820E030E44CE955E40E94CD0820E053
:100FD00030E040E251E40E942F0A6B017C018FE077
:100FE0000E944C03BC01990F880B990B0E946E085C
:100FF00020E030E040E85AE30E94CD0821ED32E2E3
:101000004BE15EE30E94C2092CE837E640ED5BE36A
:101010000E942F0A4B015C0129EC3EE84DE05BE3A6
:10102000C701B6010E94CD089B01AC0162E27DEFD1
:1010300086E89FE30E94C2099B01AC01C501B4018F
:101040000E942F0A4B015C01C701B6010E941B04DC
:10105000C501B4010E941B046091C9017091CA01CD
:101060008091CB019091CC010E941B048FE792E00C
:101070000E94C2038BE892E00E94C20385E892E0DE
:101080000E94C203209709F4FBCE0E94F800882337
:1010900009F4F6CE0E940000F3CE6FE271E08BE817
:1010A00092E00E943E0528CF60E471E085E892E07E
:1010B0000E943E0536CF8FE792E00E94E50485E866
:1010C00092E00E94E5048BE892E00C94E5040E9413
:1010D000A90808F481E00895E89409C097FB3EF45C
:1010E00090958095709561957F4F8F4F9F4F992375
:1010F000A9F0F92F96E9BB279395F69587957795F3
:101100006795B795F111F8CFFAF4BB0F11F460FFB2
:101110001BC06F5F7F4F8F4F9F4F16C0882311F00A
:1011200096E911C0772321F09EE8872F762F05C01E
:10113000662371F096E8862F70E060E02AF09A95B9
:10114000660F771F881FDAF7880F9695879597F9AE
:101150000895990F0008550FAA0BE0E8FEEF161648
:101160001706E807F907C0F012161306E407F5079B
:1011700098F0621B730B840B950B39F40A2661F00F
:10118000232B242B252B21F408950A2609F4A140B2
:10119000A6958FEF811D811D08950E94E0080C9493
:1011A00051090E94430938F00E944A0920F0952312
:1011B00011F00C943A090C94400911240C948509FF
:1011C0000E94620970F3959FC1F3950F50E0551F7F
:1011D000629FF001729FBB27F00DB11D639FAA278C
:1011E000F00DB11DAA1F649F6627B00DA11D661FDB
:1011F000829F2227B00DA11D621F739FB00DA11DFC
:10120000621F839FA00D611D221F749F3327A00DB5
:10121000611D231F849F600D211D822F762F6A2F51
:1012200011249F5750409AF0F1F088234AF0EE0FB6
:10123000FF1FBB1F661F771F881F91505040A9F7E3
:101240009E3F510580F00C943A090C9485095F3F4C
:10125000E4F3983ED4F3869577956795B795F7951F
:10126000E7959F5FC1F7FE2B880F911D9695879597
:1012700097F9089597F99F6780E870E060E0089516
:101280009FEF80EC089500240A941616170618069E
:101290000906089500240A9412161306140605067A
:1012A0000895092E0394000C11F4882352F0BB0F0B
:1012B00040F4BF2B11F460FF04C06F5F7F4F8F4F6E
:1012C0009F4F089557FD9058440F551F59F05F3FA9
:1012D00071F04795880F97FB991F61F09F3F79F058
:1012E00087950895121613061406551FF2CF4695DA
:1012F000F1DF08C0161617061806991FF1CF86955C
:101300007105610508940895E894BB27662777273F
:10131000CB0197F908952F923F924F925F926F926F
:101320007F928F929F92AF92BF92CF92DF92EF9275
:10133000FF920F931F93CF93DF93CDB7DEB7CA1BF6
:10134000DB0B0FB6F894DEBF0FBECDBF09942A8821
:10135000398848885F846E847D848C849B84AA84C9
:10136000B984C884DF80EE80FD800C811B81AA8156
:10137000B981CE0FD11D0FB6F894DEBF0FBECDBF21
:10138000ED0108955058BB27AA270E94DA090C9452
:1013900051090E94430938F00E944A0920F039F4AB
:1013A0009F3F19F426F40C9440090EF4E095E7FBF6
:1013B0000C943A09E92F0E94620958F3BA176207A0
:1013C00073078407950720F079F4A6F50C94840937
:1013D0000EF4E0950B2EBA2FA02D0B01B901900150
:1013E0000C01CA01A0011124FF27591B99F0593F94
:1013F00050F4503E68F11A16F040A22F232F342FDC
:101400004427585FF3CF469537952795A795F04029
:101410005395C9F77EF41F16BA0B620B730B840B3E
:10142000BAF09150A1F0FF0FBB1F661F771F881FF6
:10143000C2F70EC0BA0F621F731F841F48F487954E
:1014400077956795B795F7959E3F08F0B0CF939540
:10145000880F08F09927EE0F9795879508950E94B9
:10146000430A0C9451090E944A0958F00E9443090A
:1014700040F029F45F3F29F00C943A0951110C9483
:1014800085090C9440090E94620968F39923B1F31D
:10149000552391F3951B550BBB27AA27621773079A
:1014A000840738F09F5F5F4F220F331F441FAA1F2E
:1014B000A9F335D00E2E3AF0E0E832D091505040EA
:1014C000E695001CCAF72BD0FE2F29D0660F771F98
:1014D000881FBB1F261737074807AB07B0E809F07E
:1014E000BB0B802DBF01FF2793585F4F3AF09E3F03
:1014F000510578F00C943A090C9485095F3FE4F3A8
:10150000983ED4F3869577956795B795F7959F5F45
:10151000C9F7880F911D9695879597F90895E1E091
:10152000660F771F881FBB1F621773078407BA07F0
:1015300020F0621B730B840BBA0BEE1F88F7E0954B
:1015400008950E946A0988F09F5798F0B92F99274B
:10155000B751B0F0E1F0660F771F881F991F1AF09E
:10156000BA95C9F714C0B13091F00E948409B1E076
:1015700008950C948409672F782F8827B85F39F075
:10158000B93FCCF3869577956795B395D9F73EF437
:1015900090958095709561957F4F8F4F9F4F0895DF
:1015A0000E94A90808F48FEF08950E94A908880BEB
:1015B000990B0895A1E21A2EAA1BBB1BFD010DC0B9
:1015C000AA1FBB1FEE1FFF1FA217B307E407F507F3
:1015D00020F0A21BB30BE40BF50B661F771F881FCF
:1015E000991F1A9469F760957095809590959B0165
:1015F000AC01BD01CF010895EE0FFF1F0590F491DE
:10160000E02D09940F931F93CF93DF9382309105C0
:1016100010F482E090E0E0919302F091940230E0C7
:1016200020E0B0E0A0E0309799F42115310509F4ED
:101630004AC0281B390B24303105D8F58A819B819B
:101640006115710589F1FB0193838283FE0111C04D
:10165000408151810281138148175907E0F04817F2
:10166000590799F4109761F012960C9312971396FC
:101670001C933296CF01DF91CF911F910F91089566
:101680000093930210939402F4CF2115310551F089
:101690004217530738F0A901DB019A01BD01DF01B0
:1016A000F801C1CFEF01F9CF909394028093930298
:1016B000CDCFFE01E20FF31F8193919322503109A8
:1016C00039832883D7CF2091910230919202232B26
:1016D00041F4209103013091040130939202209350
:1016E000910220910101309102012115310541F44F
:1016F0002DB73EB74091050150910601241B350BD3
:10170000E0919102F0919202E217F307A0F42E1BF0
:101710003F0B2817390778F0AC014E5F5F4F241755
:10172000350748F04E0F5F1F50939202409391028D
:10173000819391939FCFF0E0E0E09CCFCF93DF9334
:101740000097E9F0FC01329713821282A091930274
:10175000B0919402ED0130E020E01097A1F42081D7
:101760003181820F931F20919102309192022817AC
:10177000390709F061C0F0939202E0939102DF9182
:10178000CF910895EA01CE17DF07E8F54A815B8122
:101790009E0141155105B1F7E901FB83EA834991A7
:1017A0005991C40FD51FEC17FD0761F48081918119
:1017B0000296840F951FE901998388838281938122
:1017C0009B838A83F0E0E0E012968D919C911397C1
:1017D0000097B9F52D913C911197CD010296820F9A
:1017E000931F20919102309192022817390739F600
:1017F000309751F51092940210929302B093920296
:10180000A0939102BCCFD383C28340815181840FC6
:10181000951FC817D90761F44E5F5F4F8881998182
:10182000480F591F518340838A819B819383828310
:101830002115310509F0B0CFF0939402E0939302A3
:101840009ECFFD01DC01C0CF13821282D7CFB0E062
:10185000A0E0EDE2FCE00C948D098C01009751F4BE
:10186000CB010E94020B8C01C801CDB7DEB7E0E1CD
:101870000C94A909FC01E60FF71F9C0122503109C5
:10188000E217F30708F49DC0D901CD91DC911197BF
:10189000C617D70798F0C530D10530F3CE010497AD
:1018A0008617970708F3C61BD70B2297C193D193CE
:1018B0006D937C93CF010E949E0BD6CF5B01AC1A37
:1018C000BD0A4C018C0E9D1EA0919302B091940212
:1018D000512C412CF12CE12C109731F58091910283
:1018E000909192028815990509F05CC0461657063A
:1018F00008F058C08091010190910201009741F4D5
:101900008DB79EB74091050150910601841B950B40
:10191000E817F90708F055C0F0939202E09391029E
:10192000F90171836083A0CF8D919C9111971296DC
:101930006C90129713967C901397A815B90559F5DA
:101940006C0142E0C40ED11CCA14DB0420F1AC01CE
:101950004A195B09DA011296159780F06282738248
:1019600051834083D9016D937C93E114F10471F0AC
:10197000D7011396FC93EE93129776CF22968C0F95
:101980009D1FF90191838083F301EFCFF0939402BF
:10199000E093930269CF4816590608F42C017D01A3
:1019A000D3019ACFCB010E94020B7C01009749F032
:1019B000AE01B8010E94E40CC8010E949E0B870191
:1019C00053CF10E000E050CFFB01DC0102C00190DA
:1019D0000D9241505040D8F70895FB01DC01019071
:1019E0000D920020E1F7089510E0C3E6D0E004C0B6
:1019F000FE010E94FC0A2196C436D107C9F7F8946B
:021A0000FFCF16
:101A0200FF000095028000000000002E018E00BB46
:101A1200007B01EC00CA00DE000D0A006E616E0060
:101A2200696E66006F766600464952452121004E76
:101A32006F204649524500476173204C65616B0037
:101A42004E6F20476173206C65616B004D6F746946
:101A52006F6E2064657465637465642062757420BA
:101A62006C6F77206C6967687420736F206C69678C
:101A72006874207475726E6564206F6E004D6F74A9
:101A8200696F6E20646574656374656420616E6459
:101A920020656E6F756768206C6967687420736F64
:101AA200206C69676874206E6F74207475726E653D
:101AB20064206F6E006E6F206D6F74696F6E000030
:00000001FF
